:020000040800F2
:1000000000200020D5010008DD010008E101000802
:1000100000000000000000000000000000000000E0
:1000200000000000000000000000000015020008B1
:100030000000000000000000190200081D02000876
:1000400025020008250200082502000825020008F4
:1000500025020008250200082502000825020008E4
:1000600025020008250200082502000825020008D4
:1000700025020008250200082502000825020008C4
:1000800025020008250200080000000025020008E3
:1000900025020008250200082502000825020008A4
:1000A0002502000825020008250200082502000894
:1000B00025020008000000002502000830B583B0CA
:1000C00000F09CFD314B324A1360324A1360324BD0
:1000D000324A03E0116819600433043230498B421C
:1000E000F8D32B4B1A682F4B9A4204D1294B1A682C
:1000F0002D4B9A4200D0FEE7244B2C4A13602C4A29
:1001000013602C4B02E000221A6004332A4A934207
:10011000F9D3264B1B68002B03D1254B1B68002B02
:1001200000D0FEE700F0C6FD694601A800F0CCFC57
:10013000224C234B1C1BA410002504E0AA001F4BDB
:10014000D35898470135AC42F8DC1E4C1E4B1C1BA3
:10015000A410002504E0AA001A4BD3589847013593
:10016000AC42F8DC0099019800F07CFF0500174CC8
:10017000174B1C1BA41004E0013CA200134BD358E6
:100180009847002CF8DC280000F07AFCBABADECAE6
:100190000000002008060020000000200074000875
:1001A0000C06002078563412325476980C06002043
:1001B000140700200C060020180700205002000839
:1001C00050020008500200085002000850020008C7
:1001D0005002000810B5FFF771FFC04600BEFEE7F1
:1001E00004207146084202D0EFF3098001E0EFF3EA
:1001F000088071460A4A104770B504000D00044893
:1002000000F0A2FC2900200000F0B4FC00BEFEE7D4
:100210003C70000800BEFEE700BEFEE7704700002D
:08022000F901000800BEFEE731
:1002280000740008000000200C060020007400087C
:1002380000000000000000000C0600201807002045
:080248000000000000000000AE
:1002500010B504000E4B1978FA20800000F050FF12
:1002600001000C4B186800F04BFF00F06BF8002801
:100270000AD1032C0AD800222100013800F024F80A
:10028000054B1C60002002E0012000E0012010BDB1
:1002900008000020140000200400002010B5064AC9
:1002A000116810230B4313600320FFF7D1FF00F008
:1002B00025FF002010BDC04600200240014B1868F9
:1002C0007047C046A806002070B505000C00032941
:1002D00003D98B21184800F0F5FC002D12DBAA0889
:1002E0001648C0329200115803231D40ED00FF262E
:1002F0003300AB409943A30134001C40AC400C4395
:10030000145017E0EDB20F222A40083A9208063244
:1003100092000B4B9C466244516803231D40ED0044
:10032000FF200300AB409943A30118400400AC40F8
:100330000C43546070BDC046286F000800E100E027
:1003400000ED00E001380A4B98420FD8094A50608E
:1003500009490B6A1B021B0AC020000603430B62FB
:100360000023936007331360002000E001207047F2
:10037000FFFFFF0010E000E000ED00E010B504001A
:10038000042806D0002804D02621FF31084800F0B8
:1003900099FC042C05D1074A116804230B43136010
:1003A00004E0044A136804218B43136010BDC04667
:1003B000286F000810E000E0014B18687047C04645
:1003C00014000020F8B505000F0016001C0039E0ED
:1003D000631C37D0FFF772FF069BC01A844201D915
:1003E000002C2FD12A685368E0218B43536082236D
:1003F0005B006A689A420DD1AB6880221202934278
:1004000003D08022D200934204D12A68136840218D
:100410008B43136080239B01AA6A9A420AD12A68FF
:1004200011680E4B0B4013602A6813688021890104
:100430000B43136001225D23EA540022013BEA547E
:10044000032009E02B689B683A009A431300594245
:100450005941B142BCD10020F8BDC046FFDFFFFFCB
:10046000F8B507000C0015001E0040E0C023DB00BB
:100470009C4202D1002D00D1137B731C37D0FFF7B3
:100480001DFF069BC01A864201D9002E2FD13A6863
:100490005368E0218B43536082235B007A689A4261
:1004A0000DD1BB6880221202934203D08022D20079
:1004B000934204D13A68136840218B431360802330
:1004C0009B01BA6A9A420AD13A6811680B4B0B40F9
:1004D00013603A681368802189010B43136001227D
:1004E0005D23FA540022013BFA54032005E03A68E8
:1004F00093682340AB42B9D10020F8BDFFDFFFFF76
:1005000070B582B004000D00160000920B000022AE
:10051000C0214901FFF7A4FF002805D0226E202347
:100520001343236603201DE000962B000022802148
:100530002000FFF747FF002805D0226E2023134339
:10054000236603200EE000962B000022C021C90084
:100550002000FFF785FF002804D0226E20231343DC
:100560002366032002B070BD7047C04670B5041EFC
:1005700000D14DE10368A74A934207D0A64A9342AF
:1005800004D0A8214900A54800F09CFB6368002B1B
:1005900008D082225200934204D05221FF319F485A
:1005A00000F090FBA368002B0CD08022D200934275
:1005B00008D080221202934204D0A9214900974812
:1005C00000F080FBE368F0221201934234D0013A3C
:1005D000FF3A934230D0013AFF3A93422CD0013A8D
:1005E000FF3A934228D0013AFF3A934224D0013A8D
:1005F000FF3A934220D0013AFF3A93421CD0013A8D
:10060000FF3A934218D0013AFF3A934214D0013A8C
:10061000FF3A934210D0013AFF3A93420CD0013A8C
:10062000FF3A934208D0013AFF3A934204D0542152
:10063000FF317A4800F046FBA36980229200934282
:100640000AD0002B08D08022D202934204D0AA21E3
:100650004900724800F036FB636B082B06D0002B74
:1006600004D05621FF316D4800F02CFBE369002BCC
:1006700012D0082B10D0102B0ED0182B0CD0202B02
:100680000AD0282B08D0302B06D0382B04D0AB2131
:100690004900624800F016FB236A002B06D0802B2D
:1006A00004D05821FF315D4800F00CFB636A002B39
:1006B00006D0102B04D0AC214900584800F002FBB2
:1006C000636A002B11D12369002B06D0022B04D0C2
:1006D0005C21FF31514800F0F5FA6369012B04D920
:1006E000AE2149004D4800F0EDFAA36A002B08D076
:1006F00080229201934204D06021FF31474800F0EC
:10070000E1FA80239B01A26A9A4213D1E36A591E3F
:10071000434A914201D8DB0704D4B12149003F4844
:1007200000F0D0FA236B022B04D96421FF313B483F
:1007300000F0C8FA5D23E35C002B05D100225C3396
:10074000E2542000FFF710FF02225D23E2542268EA
:10075000136840218B431360E268E023DB009A4278
:1007600001D9002001E080204001F0231B019A42C2
:1007700005D0E023DB009A4201D00023A362236B63
:10078000002B08D1E023DB009A4202D90223236325
:1007900001E00123236323686268A1680A43216999
:1007A0000A4361690A4380218900A56929400A43F7
:1007B000E1690A43216A0A43A16A0A431A60236B6A
:1007C000022B05D122681368802109010B431360B5
:1007D0002168628B04231340626A1343626B1343E4
:1007E000E268134303434B6080239B01A26A9A4251
:1007F00002D12368E26A1A612268D169094B0B4071
:10080000D3610023236601225D33E254002000E01F
:10081000012070BD00300140003800405C6F0008CE
:10082000FEFF0000FFF7FFFFF0B585B004000F00EA
:1008300016001D00E023DB00C2689A4201D8012E99
:1008400006D9FB0704D5CB2189008B4800F03AFA82
:10085000A368002B08D080221202934204D0CC213E
:100860008900854800F02EFA5C23E35C012B00D15F
:10087000FEE001225C23E254FFF720FD01905D239E
:10088000E35C012B00D0DDE0002F00D1DCE0002E86
:1008900000D1DBE003225C33E25400232366A7632C
:1008A000A687E68723644132A3520232A35223650E
:1008B000E36480231B02A2689A4205D12268136870
:1008C0008021C9010B43136080239B01A26A9A42D5
:1008D0000AD122681168694B0B40136022681368C3
:1008E000802189010B43136023681A68520603D4E0
:1008F000196840220A431A60E023DB00E2689A424A
:1009000030D96368002B01D0012E26D12368A26B59
:100910001288DA60A36B0233A363E38F013B9BB2BF
:10092000E3871AE023689A6892070AD5A26B1288B7
:10093000DA60A36B0233A363E38F013B9BB2E387CF
:100940000BE0FFF7BBFC019BC01AA84202D36B1C53
:1009500000D07DE0002D00D17CE0E38F9BB2002B26
:10096000E0D14CE06368002B01D0012E43D1E38F2E
:100970009BB2012B0BD92368A26B1288DA60A36BA0
:100980000233A363E38F023B9BB2E38733E0A36BA5
:100990001B7822681373A36B0133A363E38F013BBE
:1009A0009BB2E38727E0226893689B0719D5E38F02
:1009B0009BB2012B0AD9A36B1B88D360A36B0233B4
:1009C000A363E38F023B9BB2E38714E0A36B1B7826
:1009D0001373A36B0133A363E38F013B9BB2E387E4
:1009E00009E0FFF76BFC019BC01A854201D86B1C24
:1009F00032D1002D32D0E38F9BB2002BD3D1802394
:100A00009B01A26A9A4205D122681368802149019C
:100A10000B431360019A29002000FFF771FD0028A5
:100A200001D020232366A368002B06D103932368FB
:100A3000DA6803929B680393039B236E002B0FD10C
:100A400000200EE002200CE001200AE0012008E076
:100A5000032006E0032004E0032002E0032000E07E
:100A6000012001225D23E2540022013BE25400E018
:100A7000022005B0F0BDC0465C6F0008FFDFFFFF3D
:100A8000FEE7C04610B503000C4A1268002A02D1E6
:100A90000B490A4A1160094A106803330322934341
:100AA000C318084A934206D901F070FF0C23036073
:100AB0000120404201E0014A136010BD10060020F1
:100AC00018070020001C002001230360014B0B606D
:100AD0007047C0460C000020F0B54F464646C0B4F3
:100AE00087B0040001914356002B1FD10426301C0F
:100AF000211CABBE041C1CE03E00102F00D91026A8
:100B0000002305E00022A25602A9CA540133013491
:100B1000B342F7D302AA914600224946CA5404259B
:100B2000281C4946ABBE8046BF1B00E0019F002F3A
:100B3000E2D1019807B00CBC90469946F0BDC04682
:100B400010B5FFF7C9FF10BD0FB400B583B004ABFB
:100B500004CB01938021064803F010FD002803DD3B
:100B600001000348FFF7ECFF03B008BC04B01847CE
:100B70001806002070B504000D001548FFF7E4FFCB
:100B800021681448FFF7E0FF61681348FFF7DCFFB6
:100B9000A1681248FFF7D8FFE1681148FFF7D4FFBA
:100BA00021691048FFF7D0FF61690F48FFF7CCFFBC
:100BB000A1690E48FFF7C8FFE1690D48FFF7C4FFC0
:100BC0000C48FFF7C1FF29000B48FFF7BDFF70BDC0
:100BD0008C6F00089C6F0008AC6F0008BC6F0008A9
:100BE000CC6F0008DC6F0008EC6F0008FC6F000899
:100BF0000C7000081C7000082470000810B500F08C
:100C000001F810BD7047C04610B51E4B5B680C2242
:100C10001340042B07D0082B09D0002B22D11A4AED
:100C20001A4B1A6021E0184A184B1A601DE0154B48
:100C30005C685A68802040020240A40C0F210C40DE
:100C40000234DB6A19400131824206D10E4800F0BD
:100C500057FA44430D4B1C6007E00D4844430B4BCF
:100C60001C6002E0084A094B1A60064B5B681B09CE
:100C70000F221340074AD35C044A1168D94011601F
:100C800010BDC0460010024000127A00140000207F
:100C900000093D004C70000810B5FFF78DFBFA21EC
:100CA000890000F02DFAFFF74DFB0420FFF766FBEB
:100CB00010BDC04610B5FFF7F1FAFFF7EDFFFFF7E3
:100CC000A3FF10BD10B50A0001000248FFF73CFF6A
:100CD000FEE7C0465C700008064AD16902230B4358
:100CE000D361054B054A9A62054ADA6201225A61CC
:100CF0001A60704700100240000400407FBB0000F3
:100D0000FFFF0000064B5A6A92B200E0C046044B57
:100D10005B6A9BB29B1A9BB28342F7D37047C04673
:100D20000004004010B5104A1168104B0B401360CE
:100D30000D4B1B689B01FBD40B4BA02292035A6006
:100D40001A68802149040A431A60074B1B689B01FB
:100D5000FBD505494B6803229343013A13434B608B
:100D6000FFF752FF10BDC04600100240FFFFFFFE1C
:100D700000B583B06B46D8710A4B9B689B07FBD5C7
:100D800001235B420122694607310748FFF74CFD0A
:100D9000044B9B689B07FBD5024B9B681B06FBD44F
:100DA00003B000BD00380040B006002070B50B4C09
:100DB000A36980256D002B43A361A369802292045F
:100DC0001343A361A369802252041343A361FFF775
:100DD000CFFFA3692B43A36170BDC0460004004848
:100DE00070B50B4CA36980256D002B43A361A369EB
:100DF000802292001343A361A3698022520413430B
:100E0000A361FFF7B5FFA3692B43A36170BDC04683
:100E10000004004870B50C00150007231840573B2C
:100E20001843C0B2FFF7C2FF0234E4B20F202040E3
:100E3000FFF7BCFF240910200443E0B2FFF7B6FF20
:100E4000002407E0EB00054AD318185DFFF7C8FF40
:100E50000134E4B2072CF5D970BDC046180000205B
:100E6000F8B506000C001700002506E02100300050
:100E7000FFF7D0FF0834E4B201357A5D002A01D0D3
:100E8000782CF3D9F8BDC04600B587B00E4B1B686F
:100E90000E4A112101A802F0FBFB01AA002100204B
:100EA000FFF7DEFF0A4B1B680A4A112101A802F076
:100EB000EFFB01AA00210120FFF7D2FF6420FFF71A
:100EC00021FF07B000BDC0469C0600208C700008C2
:100ED000980600209870000870B5404B5A69802031
:100EE000C00202435A61DA698021C9011143D96104
:100EF0003B4C2368802636053343236023688022D9
:100F00001206134323600023636221688022520289
:100F10001143216022680243226022688021C903B4
:100F20000A43226061682F4A0A406260A1682E4A23
:100F30000A40A2602D4D2E4A2A6080221202AA6029
:100F4000822252006A60E022D200EA602B616B616B
:100F500080229200AA61C93AFF3AEA612B62073304
:100F6000EB622800FFF702FB2A68116840230B435D
:100F70001360A3693343A3610A20FFF7C3FEA3698B
:100F8000802212011343A3610A20FFF7BBFE002455
:100F900004E0184B185DFFF709FF01341C2CF8D949
:100FA000002518E00720284050235B421843C0B2B8
:100FB000FFF7FCFE0220FFF7F9FE1020FFF7F6FE18
:100FC000002404E00020FFF70BFF0134A4B27F2CC3
:100FD000F8D90135EDB2072DE4D970BD00100240FB
:100FE00000040048FFF4FFFFFFFF3033B00600208D
:100FF0000038004018040020184B5A6980218902EB
:101000000A435A619A69802189000A439A619022B1
:10101000D205116830230B431360114BDA68182195
:101020008A43DA60DA6808318A43DA60DA68802154
:1010300049010A43DA60DA68802189010A43DA60EB
:10104000596907220A435A61996A02220A439A623D
:10105000996801220A439A607047C0460010024016
:101060000024014070B5FFF719F9FFF75BFEFFF7A9
:1010700033FEFFF731FF184A916901230B43936157
:10108000FFF7BAFF154B996804220A439A601E6C59
:10109000300001F0F9F9124A124B00F0F1FB002286
:1010A000114B00F0D7F801F07BFA01F025FA0400AB
:1010B0000D0002000B0031000C48FFF745FD0C4A03
:1010C0000C4B2000290000F0DBFB00F0A5F80A4BD8
:1010D0001860FFF7D9FED5E7001002400024014058
:1010E0005839B4C876BE074000FEAF40A47000086F
:1010F000BA81AC628B529A409C0600207047C04671
:10110000002243088B4274D303098B425FD3030A46
:101110008B4244D3030B8B4228D3030C8B420DD359
:10112000FF22090212BA030C8B4202D312120902E7
:1011300065D0030B8B4219D300E0090AC30B8B4225
:1011400001D3CB03C01A5241830B8B4201D38B03D3
:10115000C01A5241430B8B4201D34B03C01A524178
:10116000030B8B4201D30B03C01A5241C30A8B42BB
:1011700001D3CB02C01A5241830A8B4201D38B02A6
:10118000C01A5241430A8B4201D34B02C01A52414A
:10119000030A8B4201D30B02C01A5241CDD2C309BC
:1011A0008B4201D3CB01C01A524183098B4201D338
:1011B0008B01C01A524143098B4201D34B01C01A23
:1011C000524103098B4201D30B01C01A5241C3089B
:1011D0008B4201D3CB00C01A524183088B4201D30A
:1011E0008B00C01A524143088B4201D34B00C01AF6
:1011F0005241411A00D20146524110467047FFE762
:1012000001B5002000F006F802BDC0460029F7D065
:1012100076E770477047C04670B500220C4B04005B
:101220000D0001F07DFA002804D12000290001F012
:10123000F5F870BD064B00222000290000F09AFD51
:1012400001F0ECF880231B069C466044F1E7C046A1
:101250000000E041F0B556464D4644465F46F0B4C6
:101260001D000E034C00CB0F87B00700924681464D
:10127000360B640D98466AD06D4B9C4235D0802267
:10128000430F12041343F6001E43C3009946694BF3
:1012900000279C460023644402932B0368001B0B29
:1012A000ED0F51469B46400D009500D178E0604B14
:1012B00098426CD05B46DA004B0F802109040B4347
:1012C00013439B465346D9005A4B9C460023604427
:1012D0004246201A6A40924601901F430F2F00D9C0
:1012E000B0E05548BF00C0598746374300D088E07A
:1012F000002399460233082700260293CDE7434690
:10130000B34649460093029B009A9246022B00D0B6
:10131000BFE1002153460122002689461A40444B72
:10132000002136030C0D2405360B2643434C1B05C8
:1013300026401E437600D207760816434846310001
:1013400007B03CBC90469946A246AB46F0BD330080
:1013500003434FD0002E00D1BCE1300001F0EAF988
:1013600003000B3B1C2B00DDADE11D220100D31A55
:1013700008393A008F408E40DA40B9461643304B68
:1013800000279C46002360444442029385E753466D
:101390005A4613432CD1002300219B46023397E782
:1013A0000B4320D05B46002B00D19EE1584601F054
:1013B000C1F903000B3B1C2B00DD8FE102005946F5
:1013C000083A91408B461D21CB1A5146D9400B005B
:1013D00059460B4351469B469140194B9C466044ED
:1013E0004042002374E7002300219B4601336FE74E
:1013F00003236DE700239946013304270026029357
:101400004BE703230C27029347E70122D51A382D17
:1014100000DCB0E153461A40002100230026894633
:101420007EE700238026994600223603004B77E7AB
:10143000FF07000001FCFFFFCC700008FFFF0F80DA
:10144000F30300005E4500D972E100D16DE1019B1C
:101450004D46013B01930023340002935B461E027C
:101460000B0E1E430B020393330C994633041B0CE3
:10147000494620000093FFF743FE009B370043439B
:101480000600494620009846FFF7C0FE2C0C0904D0
:101490000C43A04509D9E419731EA74200D95CE1A9
:1014A000A04500D859E1023EE4194346E41A4946F2
:1014B0002000FFF725FE0300009A8046534349466B
:1014C00020009B46FFF7A2FE2A040904120C0A43DF
:1014D00093450DD94346D219013B974200D93AE1D1
:1014E000934500D837E102235B429C46D219E04481
:1014F0005B46D21A4346360433439B460399180C85
:101500000B0C1D00059309045B46090C0C001B0421
:101510001B0C4443049159436B4368431B190D0C46
:10152000EB189C4203D980246402A44660441C0C3E
:1015300009041B04090C20185D18824200D2DEE069
:1015400000D1D7E0161A029B9C465D1BAC459B411F
:101550005B42F61AB74200D106E149463000FFF778
:10156000CFFD009B04004343494630009846FFF7F7
:101570004DFE2E0C09040E43B04509D9F619631E21
:10158000B74200D9F3E0B04500D8F0E0023CF619CC
:101590004346F31A494618000293FFF7B1FD009B3A
:1015A00006004343494602989846FFF72FFE2D0454
:1015B00009042D0C0D43A84509D9ED19731EAF423E
:1015C00000D9D6E0A84500D8D3E0023EED192404A6
:1015D000210043463143049E059A3000ED1A0B0466
:1015E0000C0C1B0C58436643534354439A19030C89
:1015F0009B189E4203D980225202944664441A0CDE
:1016000000041B04000C14191B18A54250D34DD024
:1016100001231943964A019B94466344002B00DC46
:10162000F3E64A0709D00F220A40042A05D00A1D12
:101630008A42894149428B4411005A46D20108D559
:101640005A468C4B1A4093468022D2009446019B06
:101650006344894A934200DD5BE65A46C908500755
:1016600008435602514601225B058146360B5B0D4D
:101670000A4055E680231B031E4211D05A461A42E7
:101680000ED15E461E433603360B2A0089467B4B3D
:1016900046E6032B00D1E1E0012BBBD11A40BBE6AB
:1016A0001E433603360B4246744B39E6002BB1D04D
:1016B0007D194A1EAF4252D91100A542A8D1039A02
:1016C0009A42A5D1A6E703003E00283B9E40002396
:1016D000994654E601F02EF8203041E603005246C8
:1016E000283B9A400021934677E6504601F022F8C5
:1016F00020305EE6029B0026AB4200D323E7039E28
:101700000299B44661448846B045B6415B4676428C
:10171000F619B218013B0291974213D290424FD86A
:1017200000D18EE0161A9B460DE7894500D28EE661
:1017300074084B46F60735005B081D434B46DB0734
:1017400002938BE69742EDD10399029CA142E5D921
:101750003E1A9B46F7E69846CAE61E00A5E6AC424E
:101760003ED874D0110053E70121494252E71C00D2
:101770000EE71E002BE71F2D3CDC20230A005846F5
:101780005B1B9840EA4099400243481E81415E46F7
:101790001143EE404B0709D00F230B40042B05D01B
:1017A0000B00191D99429B415B42F61833023CD550
:1017B0005346012200211A40002601238946AFE545
:1017C00002235B429C46039CE344A446029B634481
:1017D0009846A045B6417642F6190293B218B1E692
:1017E00003988A1E41008142B6417642F619AD192E
:1017F000039161E71F225242D31A5A46DA4013007E
:10180000202D29D040225846551BA8400143481E90
:10181000814107200B4318400026002809D00F22E1
:1018200000261A401900042ABBD10B00700776026B
:10183000360BDB0803439946012253461A40002326
:101840006EE502998D42BBD89B4600267BE6039845
:101850009842C5D3110032E70020D7E780265B46C7
:1018600036031E433603360B009A8946034B57E571
:10187000FF030000FFFFFFFEFE070000FF07000060
:10188000F0B55F4656464D464446F0B40D039946C2
:101890004E002B0B87B00700924680469B46760D84
:1018A000CC0F002E69D06D4B9E4235D05B46802216
:1018B000DD001204430F13432B439B46C30098469D
:1018C000674B00279C460023664401934A46150354
:1018D0005000D20F53462D0B400D914600D176E0BB
:1018E0005E4A90426CD080225B0F120413435C4A24
:1018F000ED0094461D4353460022DB0060444946F8
:101900003618701C6140029017430F2F00D9AFE0CA
:101910005448BF00C759BF465B461F4300D088E00C
:1019200000239B469846023308270193CEE7494699
:10193000022A6AD0032A00D109E2012A00D0BBE1C1
:1019400011400022002300259046CCB200212D0337
:101950000A0D12052D0B1543434A1B0515401D4367
:101960006D00E4076D0825434046290007B03CBCE4
:1019700090469946A246AB46F0BD034352D05B4623
:10198000002B00D18AE1584600F0D4FE03000B3B47
:101990001C2B00DD7BE11D22D31A3A0001005D46BD
:1019A000DA4008398D4013008F402B439B46B846E0
:1019B0002E4B00279C46002360444642019385E756
:1019C00052462A432CD100250023022297E7524693
:1019D0002A4321D0002D00D154E1280000F0AAFEB6
:1019E00003000B3B1C2B00DD46E11D21CB1A5146A9
:1019F0000200D9405346083A954093400D431B4A94
:101A0000944660444042002279E7012400220C40C1
:101A1000124B0025904699E70025002301226EE72E
:101A200003226CE700239B46984601330427019369
:101A30004CE703230C27019348E7002380259846B1
:101A400000242D03054B81E75D464346019A6FE76D
:101A50005D4643462100019A6AE7C046FF07000041
:101A600001FCFFFF0C710008FFFF0F80F303000073
:101A70004246120C91461A0C9446424617044A46B6
:101A80001B041B0C5A43604690464A4642431000D2
:101A9000039262461C003F0C7A437C43424401920D
:101AA000220C9246019A5244904506D982468020E3
:101AB00040028046C24450460390100C04904846B1
:101AC0002404240C1204121905922A0C2D042D0C46
:101AD00068432C00824648467C4350438146200C94
:101AE0008046574357444744BA4503D980204002B3
:101AF0008046C144380C3F04B84648442404240CB2
:101B000001900498A044404404905846000C81463B
:101B100058460404200C8246070048465F434C4662
:101B20004343604660436446834650464443380C12
:101B30008446E4186444A34203D980235B029C4694
:101B4000E34448463F04230C3F0C2404E419574661
:101B500068436F4384464D46504655434243380CD4
:101B6000814662444A445B44944503D98020400244
:101B70008446654403983F04834604983F0C84469A
:101B8000E344C345804140428246100484460198A4
:101B9000674484466744A344BC46A345A441994690
:101BA000D44464428742BF41D4458041E144A046C9
:101BB00099459B417F424042C8440743120CBA18E2
:101BC000A045A4415F423B0064422343D7184346EB
:101BD0007D19DB0D6D021D435B465A02059B1A43BE
:101BE000531E9A415B46DB0D1A4343465B02134387
:101BF000EA0107D501225C0813402343EA07029E4D
:101C000013436D08574AB218002A4BDD580709D014
:101C10000F201840042805D0181D98429B415B42B4
:101C2000ED180300E80104D54F4A15408022D20088
:101C3000B2184E48824200DDE7E60124DB0868075F
:101C400018436D02530580462D0B5B0D0C407DE65D
:101C5000802259461203114208D0154206D115437D
:101C60002D0398462D0B4C46414B6FE65D461543C0
:101C70002D032D0B3E4B69E603005546283B9D4046
:101C80000023BCE6504600F055FD2030A8E60300D6
:101C9000283B9F400023BB46984689E600F04AFD5A
:101CA000203073E60124A61A382E07DD00220C40EE
:101CB00000230025904649E6029EA3E71F2E20DC64
:101CC00020222C001800921BF040944093400443C3
:101CD000581E83411C43F540630709D00F2323405E
:101CE000042B05D023001C1D9C4292415242AD188A
:101CF0002B021FD5012400220C4001230025904611
:101D000024E61F202C004042821AD440202E1CD0F2
:101D10004022961BB5402B43581E83410720234386
:101D200018400025002809D00F2200251A401C0069
:101D3000042AD8D1230068076D022D0B0124DB088B
:101D4000034398460C40002300E60025E3E7802289
:101D50000124120315432D0398462D0B0C40044B10
:101D6000F4E5C046FF030000FFFFFFFEFE07000092
:101D7000FF070000F0B557464E464546E0B40E005A
:101D80001100F20F9246C500420F1803370374008A
:101D9000400A4E0F7F0A3043CF4E17435A00640D5E
:101DA000520DDB0FC900B24200D1E5E001267340BD
:101DB000A61AB446534500D1AFE0002E00DC0DE179
:101DC000002A3AD103000B4300D0E4E06B0709D0AE
:101DD0000F232B40042B05D02B1DAB42AD416D4290
:101DE0007F191D003B0200D488E0BB4B01349C42AC
:101DF00000D110E13A00B94B51461A400123500777
:101E0000ED08520264050543120B640D0B400021DE
:101E1000280012030D0D120B64052D0515436208F1
:101E2000AF4CDB072C401443640064081C432100C2
:101E30001CBC90469946A246F0BDA74B9C42C5D01B
:101E400080231B0418436346382B00DDFDE01F2B65
:101E500000DD30E1624620239B1A02009A4066466C
:101E600090460A009940F24046464B1E9941324343
:101E7000114363460200DA40691A8D429B410D000E
:101E8000BA1A5B42D71A3B0235D57A02530A9846F2
:101E90004346002B00D1C4E0404600F04BFC030059
:101EA000083B1F2B00DDC5E020222900D21A47463F
:101EB000D1409F400A009D403A439C4200DDC0E073
:101EC0001C1B631C1F2B00DDE4E0202114002800F4
:101ED000C91AD8408C408D400443DA40681E8541C1
:101EE00017002543002471E7424663461A4300D198
:101EF0004CE2674645466B0700D069E7012351462F
:101F00007807ED08FA080B40054373498C4238D036
:101F100012036405120B640D79E7002E00DC9AE0D1
:101F2000002A47D06C4A944200D14FE78022120425
:101F300010436246382A00DC08E10143481E814113
:101F40000022C9B24919D219A942BF410D007F42EE
:101F5000BF183A0200D442E15F4A0134944200D1F2
:101F60004EE101205D4A69083A4028400843D50700
:101F7000054357089A4629E706000E4300D017E7A5
:101F800014E72900114300D1F9E1802109030A4334
:101F90001203120B3BE701235B429846C44463469D
:101FA000002B72D1691A8D429B413F1A5B42FF1A86
:101FB0000D0068E702000A4300D107E70122524200
:101FC0009046C4446246002A00D0E6E06918A9425F
:101FD000B6413F187642F7190D00BAE7002E00D03F
:101FE00080E0621C5205520D012A00DCF9E06A1AF9
:101FF00091464D45B6413A1A7642921B90461202DE
:1020000000D499E04D1BA9428941C71B49427A1A65
:1020100090469A463CE75246012300251340002291
:10202000F5E6280000F086FB20300300083B1F2B5C
:1020300000DC39E72A002838824000259C4200DC79
:102040003EE7264FE41A1740C0E60143481E81418F
:102050000022C9B210E7002E00D0F1E0621C9446C5
:102060005205520D012A00DCA0E01B4A944500D124
:10207000C5E06918A94292413F185242D219490855
:10208000D5070D4357086446A0E6134B9C4200D089
:10209000D9E69BE611001F3CE1400C00202B00D14B
:1020A00080E04021CB1A9A4015436A1E95410027D3
:1020B000254300241FE763460200203BDA406346C5
:1020C000202B71D0402366469B1B98400143481E3D
:1020D000814111430022CFE6FF070000FFFF7FFF91
:1020E000FFFF0F80002C48D0CA4CA24200D1A2E0D2
:1020F0007442A1468024240427434C46382C00DD3A
:10210000DBE01F2C00DD44E14E462024A41B3E00F2
:10211000A640A246B0464C462E00E640B44646468F
:10212000644626435446A5406C1EA54134002C430A
:102130004D46EF400D1B28E04A4643464D461A43A4
:1021400000D0A5E6002300240025DEE61F2A5ADC85
:1021500066462022921B060096409146B046624693
:102160000E00D640424616434A4691404A1E9141CF
:10217000020060463143C240E4E63C002C435AD0A2
:10218000F443A146002C52D14D1BA9428941C71BE3
:1021900049427F1A14009A4675E69E4A944200D03E
:1021A000C7E613E600227FE700208FE7002C00D06F
:1021B000C8E03B002B4300D10FE103000B4300D1EB
:1021C00004E66918A9429B413F185B42DF193B02B4
:1021D00000D41AE1904B0D001F406446F6E59A4684
:1021E00089E63A002A43002C5CD1002A75D102000E
:1021F0000A4300D1CAE007000D009A46E6E56446AE
:102200000022002581E662460600203AD64062465A
:10221000B046202A00D1B7E040226646921B90408B
:1022200001434246481E8141114300228AE6794C0F
:10223000A24200D061E707000D0014009A46C5E5F0
:10224000002C41D13C002C4378D0F443A146002C13
:1022500020D0704CA24271D04C46382C00DDB2E048
:102260001F2C00DDBCE02026341BA2463C00564655
:10227000B4404E46A0462C00F440A4464446664670
:102280003443A4465446A54064466E1EB5412543DA
:102290004C46E7406D188D4289413F184942CF199D
:1022A000140056E6002A2FD102000A4300D184E030
:1022B00007000D009A46574C88E53D436F1EBD410F
:1022C000ECB200270D1B60E7524CA24236D074429C
:1022D00080263604A1463743BEE702000A4300D1F8
:1022E00074E56A1A90464545B6413A1A7642921B01
:1022F0009446120200D4F7E54D1BA9428941C71B41
:1023000049427F1A9A4661E502000A433AD0ED0835
:102310007C072C438025FA082D032A4208D0C708E1
:102320002F4205D145072C003A009A46C9080C43B4
:10233000670FD200E5001743364C47E507000D0054
:10234000140043E53A002A4343D002000A4319D05F
:10235000ED087C072C438025FA082D032A4207D07C
:10236000C6082E4204D147073C003200C9080C437E
:10237000D700620FE50017439A46264C26E5002257
:10238000002544E5234C21E5002049E700230025F2
:10239000BBE54C463E00203CE6404C46B446202C73
:1023A00031D040244E46A61BB7403D436C1EA5418C
:1023B00064462C4300270D1BE7E68022002312030E
:1023C000144C0025A1E53D436F1EBD410027EDB231
:1023D00060E707000D000F4CF8E407000D00F5E47E
:1023E0004E463C00203EF440A0464C46202C0ED0E9
:1023F00040244E46A41BA7403D436F1EBD414446AA
:102400000027254346E70027CFE70D0073E50027A7
:10241000F2E7C046FF070000FFFF7FFF0B0330B568
:10242000134D1A0B4B005B0DC90F0024AB4211DD9D
:10243000104CA34210DC8024640322430E4CE41AA7
:102440001F2C0CDD0D48C31ADA4013005C42002932
:1024500000D11C00200030BD094BCC18FAE7E04049
:10246000084CA44663449A4013000343EEE7C04679
:10247000FE0300001D0400003304000013040000EC
:10248000FFFFFF7FEDFBFFFF70B5051E28D000F0BA
:1024900051F9154B154A1B1AD21A1F2A16DD2C00AA
:1024A000134A0025D21A94405A052403240B520DD6
:1024B000002124030B0D240B1B0523430D4C120597
:1024C000234013435B002800590870BD0B212C00EA
:1024D000081AC440954024035A05240B520DE7E71F
:1024E00000220024E4E7C0461E040000330400007C
:1024F00013040000FFFF0F804200120E511C430224
:10250000C9B270B55D0AC40F012915DDE02189004B
:102510008C466D071B0B6244002128000D0D2D0514
:102520002B431C4D52052B40520813435B00E4071C
:102530005B082343190070BD002A15D1002D1FD060
:10254000280000F0F7F80A281DDC0B232A001B1ACC
:10255000DA4013000200153295400F4A1B03121A8D
:1025600052051B0B520DD7E7002D06D080221B0B06
:10257000120313436D07094ACEE7084A0023CBE74D
:1025800000220023C8E703000B3B9D402B000025E1
:10259000E3E7C046FFFF0F8089030000FF0700004C
:1025A0004B0070B55E0D0C03751C640A420F6D057F
:1025B0002243C90FC4006D0D012D2ADD3B4BF318DA
:1025C000FE2B1ADC002B42DD8001451EA841D20003
:1025D0001043620F0243500704D00F20104004281C
:1025E00000D004328020C004104021D00133FF2BE2
:1025F00003D09201520ADBB201E0FF230022520213
:10260000520ADB0513435B00C9075B080B43180044
:1026100070BD002E07D01443EFD08020D20080047C
:102620000243FF23D7E722430023002A03D00522D9
:10263000D208FF2B03D05202520ADBB2DFE7002A96
:1026400032D08020C00302435202520AD7E718005A
:10265000173014DB8020000402431E20C01A1F28FC
:102660000FDC2500124BF3189D406E1EB5419A40B9
:102670002B0013432200C2401A430023ABE7002380
:10268000D5E702256D42EB1A1500DD40202809D060
:10269000084BF3189A401443621E94412200002311
:1026A0002A4398E70022F6E70022A8E780FCFFFF14
:1026B00082FCFFFFA2FCFFFF8446101C62468C4692
:1026C000191C634600E0C0461FB500F0F5F800286D
:1026D00001D40021C8421FBD10B500F049F84042A6
:1026E000013010BD10B500F0E7F8002801DB002034
:1026F00010BD012010BDC04610B500F0DDF8002867
:1027000001DD002010BD012010BDC04610B500F055
:102710006FF8002801DC002010BD012010BDC0466C
:1027200010B500F065F8002801DA002010BD012086
:1027300010BDC0461C2101231B04984201D3000C8C
:1027400010391B0A984201D3000A08391B09984224
:1027500001D30009043902A2105C40187047C0463A
:10276000040302020101010100000000000000005A
:10277000F0B55F4656464D464446F0B41F035C0034
:10278000DB0F9A46194B0E034D00C90F8046360BDE
:102790006D0D8B4691463F0B640D9D4219D0134B36
:1027A0009C421BD00123A54206D018003CBC904699
:1027B0009946A246AB46F0BDBE42F6D1C845F4D11B
:1027C000D34510D0002DF0D1304303005A1E934161
:1027D000EBE7310001230143E7D1E0E73A4301236E
:1027E000002AE2D1DEE70023DFE7C046FF07000052
:1027F000F0B55F46444656464D46F0B41F033C0BC9
:102800002C4F0E034D00A3465C008446360B6D0D25
:10281000C90F9046640DDB0FBD422BD0254FBC4243
:102820002ED0002D0ED130430700814678427841EA
:10283000002C17D15F463A4314D14B460020002BA1
:102840000AD006E0002C02D15846024301D099423A
:102850001AD00123484218433CBC90469946A246F0
:10286000AB46F0BD0028F2D0584258410122404208
:102870001043F1E737000743D0D002204042EBE796
:102880005F461743CDD0F8E7A542E2DC05DB5E45A5
:10289000DFD808D000205E45DED2484248410123FF
:1028A00040421843D8E7C445D3D80020C445F4D3E8
:1028B000D2E7C046FF070000F0B55F464D464446EC
:1028C0005646F0B41C03240BA4462F4C0F034D00B6
:1028D0005E00C90F80463F0B6D0D8B469146760D0D
:1028E000DB0FA54220D0284CA64222D0002D12D1C9
:1028F000384344424441002E20D0002C0DD05C428D
:10290000634101245B421C4320003CBC9046994635
:10291000A246AB46F0BD002E17D05B4519D05B46F2
:102920005C4201231C43EFE7390002240143EBD151
:10293000D9E7614602241143E6D1D7E761460A434D
:10294000DBD100240028DFD0E9E761460A43E4D167
:10295000E5E7B54203DD01225C421443D4E7B5420A
:10296000CDDB6745DBD809D000246745CCD259467A
:102970004C426141012449420C43C5E7C845CED8C9
:102980000024C845F3D3BFE7FF070000014B1868D8
:102990007047C04698040020002310B59A4203D027
:1029A000CC5CC4540133F9E710BDF0B58BB0140012
:1029B0001D1E129906DA802424061B191D0014001E
:1029C0002D2300E000230B702023149E03229E433E
:1029D000462E07D03300453B59424B411099013AEE
:1029E000CB18109309AB049308AB0393139B00928D
:1029F0000293109B220001932B0001F051FE07006F
:102A0000472E02D1119BDB072DD5109BFB18079396
:102A1000462E14D13B78302B0CD10022002320000D
:102A20002900FFF759FE002804D10123109A9B1AB0
:102A3000139A1360139B079A1B68D31807930022FD
:102A4000002320002900FFF747FE3022002802D093
:102A5000079B099307E0099B0799994203D9591CE1
:102A600009911A70F7E73800099B159ADB1B136070
:102A70000BB0F0BDF7B52B2307000C000270861CCD
:102A8000002901DA2D234C427B70092C1CDD6B469A
:102A9000DD1D20000A2103F0B5FE013D3031297013
:102AA00020000A2103F0C8FD04000928F1DC013DE3
:102AB00030342C706B4607333000AB4209D92B7889
:102AC000013533700136F5E73023E4183370B01C5C
:102AD0007470C01BFEBD0000F0B595B00C000A92EA
:102AE0000B931A9D099002F0D7FE036818000D930E
:102AF00000F022FE0023129323680E900C930C9991
:102B0000277E2B680722C90501D59B1800E00733F3
:102B100093431A0008322A601A685B68A264E3646F
:102B20000122E56CA66C6B005B080F935242C04B10
:102B300030000F9904F096F9002819D10122BC4BFE
:102B4000524230000F99FFF7D7FD002810D1002224
:102B5000002330002900FFF7C5FD002803D0230023
:102B60002D2243331A70B34D472F0ED8B24D0CE0CF
:102B700032002B003000290004F074F9002800D145
:102B80009AE1AE4D472F00D8AD4D03230C9A236137
:102B900001339A432260002642E0672F00D193E17F
:102BA000472F00D190E10C9A0021134312AA0592FD
:102BB00011AA0392232223600691019308A9636856
:102BC00052180292009332002B0004970998FFF7E5
:102BD000ECFE20233A0005009A43472A00D18EE1FB
:102BE0001199652F00D996E1200001393A00503043
:102BF0001191FFF73FFF129A060083182361012A03
:102C000000DD85E12268D20700D581E1232308AAEF
:102C10009B181B78002B03D023002D2243331A70FE
:102C20000B9B13AA009321000A9B099800F0A4F9BA
:102C3000431C02D1012040429BE12268530501D48C
:102C4000236964E0652F00D8CCE0A06CE16C002221
:102C50000023FFF741FD00282CD00123794A0A996F
:102C600009980B9DA847431CE4D0119B129A9342EC
:102C700008DB2368DB0705D4236800259B0700D504
:102C80000FE113E10B9D0E9B0D9A0A990998A84735
:102C90000025431CCED0129B013B9D42ECDA220062
:102CA00001231A320A9909980B9EB047431CC1D0E0
:102CB0000135F0E7119B002B2BDC0123614A0A99B7
:102CC00009980B9EB047431CB4D0119B002B05D133
:102CD000129B002B02D12368DB07CDD50B9E0E9BE8
:102CE0000D9A0A990998B0470026431CA2D0119B5F
:102CF0005B429E420ADA220001231A320A9909989D
:102D00000B9FB847431C95D00136F0E7129B2A0071
:102D1000ACE0A36D129E9E4200DD1E00002E05DC7D
:102D200000230C93F343DB170F9315E033002A00C5
:102D30000A9909980B9FB847431CF1D17AE7220002
:102D400001231A320A9909980B9FB847431C00D1F6
:102D500070E70C9B01330C930F9BA26D0C993340D1
:102D6000D31A9942EBDBAE18119B129A93420DDBFA
:102D70002368DB070AD4129B119AED18AD1B9B1A2E
:102D80009D4200DD1D00002D09DC11E00E9B0D9A17
:102D90000A9909980B9FB847431CECD14AE72B00CE
:102DA00032000A9909980B9EB047431C00D141E7B5
:102DB000EF43FB1700260C930AE0220001231A328E
:102DC0000A9909980B9FB847431C00D132E7013696
:102DD000119A129B0C999B1A2A000A409B1A9E4238
:102DE000EBDB49E7129B012B02DC01231A4245D0A1
:102DF00001232A000A9909980B9FB847431C00D168
:102E000018E70E9B0D9A0A9909980B9FB847431C27
:102E100000D10FE7A06CE16C00220023FFF75CFCFF
:102E2000002801D000251AE0129B6A1C013B26E015
:102E3000FFFFEF7F507100084C71000858710008C7
:102E4000547100085C710008220001231A320A99AB
:102E500009980B9FB847431C00D1EBE60135129B44
:102E6000013B9D42F0DB2200330050320A99099861
:102E70000B9DA847431C00D0FEE6DBE62A000A991A
:102E800009980B9DA847431CEDD1D3E622000123EE
:102E900019320A9909980B9EB047431C00D1C9E624
:102EA0000135E368139A9B1A9D42EFDB139BE068A0
:102EB00098425EDA18005CE080236268DB00511CF7
:102EC00000D06AE6073202E0002A02D101226260E5
:102ED00069E60C9908A80B430021069112A90591F7
:102EE00011A90391232109182360019300922B005B
:102EF0000497029132000998FFF757FD0500119BD6
:102F0000DA1C02DB626893421CDD023FFFB267E617
:102F1000013323617AE6662F15D16368002909DD44
:102F20002161002B02D12268D2071ED50133591826
:102F300021611AE0002B03D101222168114213D034
:102F40009A1C11E06727119B129A934206DB2268B4
:102F50002361D20709D50133236106E00121002B4B
:102F600001DC4918C91A8A182261119B0026A36541
:102F70004CE615B0F0BDC046F7B5170001938A685E
:102F80000B6900900C00934200DA130022003B60B2
:102F900043321278002A01D001333B6023689B063C
:102FA00002D53B6802333B60062523681D401ED0D6
:102FB000230043331B785A1E9341226892061CD586
:102FC0003020E1184331087021005A1C453109783E
:102FD000A2184332023311700FE02200012319328C
:102FE00001990098089EB047431C0ED00135E36854
:102FF0003A689B1A9D42F0DBDAE7220001994332DE
:103000000098089DA847431C02D10120404220E0BF
:1030100006232068E1683A6803400025042B03D1A9
:103020008D1AEB43DB171D40A3682269934201DD33
:103030009B1AED180027BD420AD0220001231A3244
:1030400001990098089EB047431CDED00137F2E793
:103050000020FEBDF0B58BB006920A004332079304
:10306000059004920A7E0C00109B6E2A00D1ABE002
:1030700011D8632A22D009D8002A00D1B5E0582AF5
:1030800000D0C5E045310A70814A4FE0642A1DD066
:10309000692A1BD0BCE0732A00D1AAE009D86F2AA4
:1030A00029D0702A00D0B3E0202209680A432260A8
:1030B00037E0752A1FD0782A33D0A9E00E001A68AD
:1030C0004236111D196013683370A4E021681A6834
:1030D000080606D4490604D5111D19600023D55EE3
:1030E00002E0111D19601568002D3BDA2D23049AAA
:1030F0006D42137036E021681A68080606D4490646
:1031000004D51568111D1960ADB202E0111D1960DA
:1031100015685F4B227E039308276F2A1DD00A276C
:103120001BE022007821453211705A4A1968039237
:10313000081D226818600D68100602D4500600D5DC
:10314000ADB2D30702D520231A4322601027002DE9
:1031500003D1202322689A432260230000224333B4
:103160001A7002E00A274A4B03936368A360002B9E
:1031700009DB0422216891432160002D05D1049EC2
:10318000002B11D07BE0002D79D0049E280039005F
:10319000FEF73CF8039B013E5B5C2800337039006E
:1031A000FDF7AEFF051EF1D1082F09D12368DB071B
:1031B00006D563682269934202DC3023013E3370F6
:1031C000049B9B1B23612BE009681A68080607D43F
:1031D000490605D5111D19601368A28A1A8004E0FA
:1031E000111D1960136862691A600023049E23612F
:1031F00016E01A68111D1960166800216268300017
:1032000002F072FB002801D0801B6060636803E05D
:10321000260042363270012323610023049A137082
:10322000079B09AA00932100069B0598FFF7A4FEBF
:10323000431C02D10120404227E023693200069955
:103240000598079DA847431CF4D0236800259B07D9
:103250000FD4099BE068984217DA180015E02200A5
:103260000123193206990598079EB047431CE1D007
:103270000135E368099A9B1A9D42F0DBE9E72600D5
:10328000039B42361B7833708EE70BB0F0BDC0460F
:103290005E7100086F710008F0B58BB0029000926B
:1032A0000020AE2205938B680E00591E5200049038
:1032B000914205D95E3BFF3B04935E23FF33B3602D
:1032C000F0233268DB0013433360330000271C33E4
:1032D0001D003C0003930897079701970697B26873
:1032E000002A00D1E6E0009B1B6809931B78492B5C
:1032F00074D018D8392B0DD8312B42D22D2B48D071
:1033000002D82B2B45D0D5E02E2B00D18DE0302BD1
:1033100025D0CFE0452B00D190E0462B79D0412B32
:1033200000D0C7E056E0652B00D187E00AD8542BC7
:1033300073D002D84E2B34D0BCE0592B71D0612B06
:1033400048D0B7E06E2B2CD004D8662B61D0692B07
:1033500044D0AFE0742B60D0792B62D0AAE0316802
:10336000C8050ED580239943019B31600133019339
:10337000049B002B00D181E0013B01320493B26039
:103380007CE0E219002A00D094E0BA4A31680A4091
:1033900005E0802132680A4200D18BE08A43326026
:1033A0006AE0002C0FD1019A002A0ED1E022E02021
:1033B0003168D2000A40C000824206D1AE4A0134D0
:1033C0000A40326058E0022C55D0012F1ED0042F45
:1033D0001CD06FE0012C6DD102244DE0002F0FD1E5
:1033E000019A002A69D1E022E0203168D2000A4027
:1033F000C000824265D1A04A01370A4032603BE0FA
:103400000221FA1E8A43D2B2002A53D10137FFB2F9
:1034100032E0022F4ED103272EE0062F4AD1072794
:103420002AE0072F46D1082726E031688A0541D5D2
:10343000924A0A403260019A06921DE0A022802042
:103440003168D2000A40C000824204D0014231D02B
:10345000019A002A35D08A0504D4019A0698089565
:10346000121A0792844A0A40C02149000A43326076
:103470000022019200E003242B700135B368009A0A
:10348000013BB360336901333361009B5B6809938F
:10349000013B5360002B04DD136809930133136073
:1034A0001DE7C0235B00F358009902989847002855
:1034B00000D114E7019B002B03D03268704B1340FE
:1034C0003360013C012C10D8BE246400039B9D4254
:1034D00009D9013D33592978009A029898473369F0
:1034E000013B3361F2E70123BFE07B1E062B2AD8A4
:1034F000022F02D8BE24640018E03C000495013C71
:10350000E4B2022C0ED0049B009A013B049319787C
:10351000BE235B00F3580298099398473369013B37
:103520003361ECE7033FFFB2ED1B0CE0039B9D42D0
:10353000D9D9013D33592978009A029898473369BF
:10354000013B3361F2E73368DA052BD55B050ED515
:10355000BE246400039B9D42C5D9013D335929789F
:10356000009A029898473369013B3361F2E7336967
:103570006C1E2178013B336165290CD045290AD0A6
:10358000BE235B00F358009A029898473369AC1E3B
:10359000013B21783361BE235B00F358009A029807
:1035A00098472500102332681A4000925CD16B4680
:1035B0001B782B70C0233268DB0013408022D200BE
:1035C000934206D1069A019B9B1A5A42002B0DD1B9
:1035D00018E0079B002B15D0089B009A591C0298F5
:1035E0000A2300F08FFF079B089DC21A3300703337
:1035F000FF339D4202D335006F35FF352149280046
:1036000000F078F800220399029800F0DFFE059B95
:10361000326804000D001B68910701D51A1D04E0F3
:1036200004210A40019206D05A1805990A601B68C5
:103630001C605D6014E005991A1D0A601F68220075
:103640002B002000290003F00DFC002803D0019876
:1036500000F01AF803E020002900FEF7A1FF38600F
:10366000F3680133F36001E00023009300980BB08E
:10367000F0BDC0467FFEFFFF7FF8FFFF7FFDFFFF2D
:10368000FFFEFFFF80710008004870470000C07F08
:103690000CB430B5164B9DB00C1E1D6804DA8B239C
:1036A00001202B6040421DE0822302A99B008B81F8
:1036B0000023029008619C4200D0631E8B604B6126
:1036C00001235B42CB81209A21AB2800019302F0B9
:1036D0002BFE431C01DA8B232B60002C02D000232D
:1036E000029A13701DB030BC08BC02B01847C04627
:1036F000980400200EB410B59DB002A90290086194
:103700000B48822488604861012040421FABC88179
:10371000084804CBA400006801938C8102F004FEE9
:103720000023029A13701DB010BC08BC03B01847E8
:10373000FFFFFF7F980400200023C25C0133002AB2
:10374000FBD1581E7047000070B516000D0002F046
:10375000ABFB002E0DD06B226B005B0DD31A002B40
:1037600007DD0024034A1B059D182B002200FEF7ED
:1037700087F870BD0000F03FF0B5A5B007930023B7
:1037800004900798209306911A9202F083F804009F
:103790000068FFF7D1FF00260027069B05901F93C6
:1037A0001F9B1A780D2A05D8092A14D2002A00D1A5
:1037B00098E112E02B2A04D02D2A04D0202A0CD123
:1037C00009E0002200E0012212925A1C1F925B784D
:1037D000002B04D186E10133E1E70023129300229C
:1037E0001F9D0B922B78302B5FD16B78582B01D01B
:1037F000782B4ED1079BC14A0293129B1FA90193BC
:1038000020AB0093049821AB01F059FD07240590EB
:10381000044001D100F0ABFD062C05D10023013599
:103820001F95129300F0A3FD209A002A07D035219E
:1038300022A802F025FC2099049802F098F8062CA2
:103840001DD8200002F0EEFE040A0715180A040035
:1038500000273E0013E0229E239F10E0239BA84AEE
:10386000A8491A40219B229E5B181B051A4317008A
:1038700005E0A54F002602E00126A44F7642059BF5
:103880001B0701D400F073FD80231B061F4300F0CB
:103890006EFD1F9B5A1C1F925B78302BF9D0002BBA
:1038A00001D100F064FD01230B9300250A221F9B28
:1038B0000A950E9308951F9803780793303BD9B269
:1038C000092910D80899082904DC0A9951435B1882
:1038D0000A9302E0290051435D18089B013001332F
:1038E00008931F90E7E7059A216802F02DFE002853
:1038F00006D00020089A079B05928446079056E060
:103900001F9A059B9446089A63441F931B78002ACC
:103910003FD11000302B05D11F9B01305A1C1F9244
:103920005B78F7E71A00313A082A3BD88446002032
:103930001F9A05900E92303B421C002B23D00A2187
:103940009444059A101882420BD00132541E082C60
:1039500003D80A9C4C430A94F5E7102AF3DC4D4344
:10396000F1E7511C0591082A06DC0A220A994A430C
:103970009B180A93002206E005990022102902DC18
:103980000A2169435D181F9B1000591C1F915B7829
:1039900002E08446089A05921A00303A092ACAD9E8
:1039A000012203E000220592944601320792202270
:1039B000190091430A000021452A4DD1059B0B9A1D
:1039C000034313438B4200D18CE01F9B06930133CA
:1039D0001F93069B5B782B2B04D00C002D2B07D15B
:1039E000012400E00C00069B02331F93069B9B788A
:1039F0001A00303A092A2CD8302B04D11F9B5A1CAC
:103A00001F925B78F8E71A00313A0021082A23D880
:103A1000303B0C931F9B13931F9B591C1F915B788A
:103A20001A00303A092A06D80A220C994A43D218B9
:103A3000303A0C92F0E7139A8A1A3549082A04DCC6
:103A40000C99334A914200DD1100002C04D0494208
:103A500002E00021069A1F92059A002A64D10B9A6F
:103A6000104301D000F083FC079A002A3AD14E2B74
:103A70001CD002DC492B05D034E0692B02D06E2B20
:103A800014D02FE023491FA801F056FE002829D0AA
:103A90001F9B2149013B1FA81F9301F04DFE0028E9
:103AA00002D11F9B01331F93174F18E01B491FA81A
:103AB00001F042FE002815D01F9B1B78282B0DD14A
:103AC00022AA17491FA801F04BFE052806D1239B07
:103AD0000D4A229E1A43170000F049FC114F0026A0
:103AE00000F045FC069B1F93002312931A9B002BAA
:103AF00001D000F03FFC00F048FCC046B071000867
:103B0000FFFFEFFF330400000000F07FFFFFFF7FA7
:103B10001F4E000051710008DB7100085971000848
:103B2000C47100080000F8FF6346CB1A0793089B96
:103B3000002B01D1059B0893059C102C00DD10245F
:103B40000A98FEF7A1FC06000F00092C15DD2300E2
:103B5000864A093BDB00D3181A685B68FDF790FEC4
:103B6000060028000F00FEF78FFC02000B0030005B
:103B7000390002F04BFE06000F00059B0F2B3ADCCC
:103B8000079B002B01D100F0F2FB26DD162B07DC92
:103B90007649DB00C9183200086849683B0017E025
:103BA0002523059A9B1A079A9A4224DC0F24059B29
:103BB0006E4DE41AE10069183200086849683B005C
:103BC000FDF75EFE079B1C1BE4002D192A686B683D
:103BD000FDF756FE06000F00C9E3079B16330ADB0C
:103BE000079B3000DA00614B39009B1A1A685B684A
:103BF000FDF730FBEEE7059B1C1B079BE418002C30
:103C000059DD0F2323400AD05849DB00C918320080
:103C1000086849683B00FDF733FE06000F000F23DC
:103C20009C4300D1B2E02633FF339C420DDD0024DB
:103C300005940A94079422230026049A4C4F13609B
:103C40000A9BB34200D07EE391E3002330003900A9
:103C50001D002411012C0DDD0122144207D0454A1C
:103C6000EB009B181A685B68FDF70AFE012301351B
:103C70006410EFE7002B01D006000F003E4BED0073
:103C8000FF183C4B32005D19286869683B00FDF75E
:103C9000F7FD374B0F000B40384906008B42C6D862
:103CA00037498B4203D90126364F76426EE0D42342
:103CB0009B04FF186AE0002C68D00F236442234065
:103CC0000AD02A4ADB00D31830001A685B68390032
:103CD000FDF7C0FA06000F00241157D01F2C04DD99
:103CE000002405940A94079425E100230693E30633
:103CF00001D56A230693300039000023224D002CA1
:103D00000ADD0122144204D02A686B68FDF7B8FD71
:103D1000012364100835F2E7002B01D006000F00E4
:103D2000069B002B19D06B227B005B0D3900D31A48
:103D3000002B12DD1F2B0CDD0026342B02DDDC27CF
:103D4000BF040AE00122203B52429A4011400F007A
:103D500003E0012252429A40164000220023300024
:103D60003900FEF7B9FC0028BAD111E0F071000863
:103D70000000F07FB87200080000B0FC0000A07CDA
:103D80000000907CFFFFEF7F8871000800230693FE
:103D90000A9B089A00930E99059B049801F03DFE3A
:103DA0000A90002800D142E7079B00245A42DB1703
:103DB0001A40079B1592DB43079ADB171A401392B0
:103DC00005940A9B0498596801F099FD0790002812
:103DD00000D130E70A9B0A991B690C319A1C9200AA
:103DE0000C300893FEF7D8FD22AB019321AB009372
:103DF00032003B0004980E960F9702F0C5F8209011
:103E0000002800D117E70121049801F08EFE0590EB
:103E1000002800D10FE7219B002B00DA95E0159ACE
:103E2000D518139A0B92069922985B1A3621091A13
:103E30001B188C46C549013B01208B4200DB8FE0FB
:103E40006246C91A521A94461F2900DD82E0884052
:103E5000002314900C932B00634408930B9B069A49
:103E60006344D3180B93089B2A009D4200DD1A007F
:103E70000B9B934200DD1300002B06DD089AED1A20
:103E8000D21A08920B9AD21A0B92159B002B6BD167
:103E9000089B002B00DD80E0139B002B00D086E008
:103EA0000B9B002B00DD8CE0002D00DD93E0079ADA
:103EB0002099049801F08DFF041E00D1BBE6002577
:103EC000C3680599C5600B9301F068FFA84200DB49
:103ED0008FE00B9BAB4200D020E2AE4200D01DE24F
:103EE0003B03AB4200D019E2D622994BD2043B40AF
:103EF000934200D812E26369AB4276D021000122DE
:103F0000049801F0F9FE0599040001F047FF00282C
:103F100000DC03E2069A8E4B002A00D199E01A00D9
:103F2000D6213A40C9048A4200DD92E0DC239B049A
:103F30009A4200DDF5E12223049A002613600A9BD1
:103F40000027002B00D0FEE111E2139A159DD21A32
:103F50000B9268E77F49CB1A010099400C9101E070
:103F600000230C93149076E71A000599049801F049
:103F70006FFE0590002800D15DE60100209A0498AC
:103F800001F0DCFD1B90002800D154E62099049834
:103F900001F0EDFC1B9B20937AE7089A2099049886
:103FA00001F0AAFE2090002800D075E743E6139A9E
:103FB0000799049801F04CFE0790002800D06FE7A5
:103FC00039E61A000799049801F096FE0790002838
:103FD00000D069E72FE62A000599049801F08CFECD
:103FE0000590002800D062E725E62369012B85DCD7
:103FF00094E1002864D10B9A3B03002A24D0564A4E
:1040000039001B0B93422DD1069B0138B4460200A8
:10401000002B0AD0D4254E4BED043B40AB4204D8D4
:104020006C321B0DD31A02009A4062451AD14B4BD9
:10403000994202D1531C00D1FDE5454B00261940A1
:1040400080235B03CF1869E1002B0BD1002E09D12F
:1040500060E70126424A3B409B183F4A76421A439A
:1040600017005BE10C9B002B03D03B4200D155E1D4
:1040700003E0149B334200D150E10B9B069A3000C1
:104080003900002B0AD0FFF75FFB02000B000E98EF
:104090000F9902F0BBFB06000F003FE1FFF754FB56
:1040A00002000B000E980F99FDF764FE002200231A
:1040B00006000F00FEF710FB002800D03BE72DE1C3
:1040C0000599200001F0B4FF80230022DB05089051
:1040D0000991FEF711FB00284AD00B9B002B04D05E
:1040E0000022204B0C920D930EE0002E02D13B03D8
:1040F00005D10CE0012E02D1002F00D11BE70022D8
:104100000025194B0C920D93164B089349E00022A1
:1041100008980999134BFEF7E5FA002808D108988A
:1041200009990022114BFDF7ABFB0500089102E055
:104130000E4B0B9D0893802212069446089B1C95FB
:1041400063441D931C9A1D9B29E0C04602FCFFFF9F
:104150000000F07FE2FBFFFFFFFF0F00FFFFEF7F9C
:104160000000F0FF0000F03F0000F0BF0000E03F63
:10417000894B089809990022FDF782FB0B9B0500EB
:104180000891002B05D180231B06CB18169017939E
:1041900003E00200089B16921793169A179B0C9245
:1041A0000D937E4B3B401493149A7D4B9A4229D138
:1041B0000E9A0F9B109211937A4B3000FF18390022
:1041C00001F072FE02000B000C980D99FDF758FBF0
:1041D00032003B0002F01AFB704A734B06000A40A3
:1041E0009A420BD9714B119A9A4203D1109B013319
:1041F00000D120E501266D4F76427EE0D4239B045A
:10420000CF1844E0069B002B2FD0D423149ADB0454
:104210009A422AD8664A674B28000899FEF76CFA3A
:1042200000281BD028000899FCF7F6FF002800D1D1
:104230000130FEF729F90B9B05000891002B05D1F1
:1042400080231B06CB181890199303E00200089BEB
:1042500018921993189A199B0C920D93D6220D9BC4
:10426000D2049B18149A9B1A0D930E980F990C9ECA
:104270000D9F01F019FE02000B0030003900FDF720
:10428000FFFA0E9A0F9B02F0C1FA06000F00069B80
:10429000002B32D1414B149A0C973B409A422CD1BF
:1042A00008992800FEF7BAF802F0FCFD0B000200A6
:1042B00008992800FDF75EFD0B9B08900991002BE3
:1042C00004D1002E02D10C9B1B030ED00898099933
:1042D000394A3A4BFEF706FA002834D10898099972
:1042E000374A2D4BFEF712FA05E0334A354B089852
:1042F0000999FEF7F7F9002825D12099049801F0D3
:1043000036FB0799049801F032FB0599049801F0F7
:104310002EFB2100049801F02AFB52E5069B002B9E
:1043200011D0294B30001193002310933900109ABB
:10433000119BFDF7A5FA06000F1E04D1002802D13B
:104340002223049A13602099049801F010FB079926
:10435000049801F00CFB0599049801F008FB0A99F8
:10436000049801F004FB2100049801F000FB1A9B63
:10437000002B02D01A9B1F9A1A60129B002B04D0AC
:1043800080231B063200FB1801E032003B001000C6
:10439000190025B0F0BDC0460000E03F0000F07FEE
:1043A0000000E07F0000B0FCFFFF9F7CFFFFEF7F7D
:1043B0000000C0FFFFFFDF419535A094FFFFDF3F06
:1043C00035E5AF35FFFFCF3F00005039044B10B546
:1043D0001B681B6A002B00D1024BFFF7CDF910BD03
:1043E000980400209C040020F0B51F000E0087B048
:1043F0000590039102920C98347801F048FA082352
:1044000000194078751C184001D02E00F3E72D2CC0
:1044100004D1073BB51C7478019304E001902B2C68
:1044200001D17478B51C002F02D0102F0AD162E0A0
:10443000302C5ED120222B789343582B54D1102757
:104440006C780235019E3900731E9E412C4BF61884
:104450003000FCF7DBFE300004913900FCF750FE21
:1044600000230200180021003039092901D80C006E
:104470000AE021004139192901D8373C04E0210024
:104480006139192914D8573CA74211DD591C0CD0A9
:10449000824208D302D1049BA34203DB7843012369
:1044A000201802E0100001235B422C780135DAE786
:1044B0005A1C0BD10198124B471EB841C018222339
:1044C000059A1360029B002B0AD117E0019A002A7B
:1044D00000D04042029A002A10D0039A002B00D04C
:1044E0006A1E029B1A6009E03024002FAAD1082717
:1044F000A8E70A27A6E7302C9CD0A3E707B0F0BDB9
:10450000FFFFFF7F13B5054C2468246A002C00D1FF
:10451000034C0094FFF768FF16BDC04698040020C6
:104520009C04002030B514009BB005001A00002C3C
:1045300004DA8B230360012040421CE0822368469A
:104540009B0083810023009104919C4200D0631E54
:1045500002930593012369465B42CB8128001E9B91
:1045600001F0E2FE431C01DA8B232B60002C02D009
:104570000023009A13701BB030BD000007B50093F4
:1045800013000A00010002480068FFF7CBFF0EBDD0
:1045900098040020F0B503690C6989B00700059103
:1045A00000269C4279DC0B00013C1433A5000393E8
:1045B0005B1904930300143302935D19049B28686C
:1045C0001B68591C0193FCF79BFD0190B04233D04E
:1045D000039B02989C460696634604CB9C46019B2F
:1045E00091B25943120C5A4389190B0CD3180793F3
:1045F000069A1E0C038889B29B1802685B1A110C7C
:104600006A46928B8A1A1914521811149BB212041A
:10461000134308C0049B06916345DDD22B68002B31
:104620000AD1029B043DAB4201D33C6104E02B68FC
:10463000002BFAD1013CF4E70599380001F0AEFBFC
:10464000002829DB0020019B02990133039A019382
:1046500040CA0B881818B3B2C31A0868360C000C8D
:10466000801B1D14451928149BB22D042B4308C12F
:10467000049B9342ECD2029AA300D3181A68002A32
:104680000AD1029A043B9A4201D33C6104E01A68C1
:10469000002AFAD1013CF4E7019E300009B0F0BDD8
:1046A000F0B516001F00446A9DB00490259D069643
:1046B0000797002C08D1102001F0FAF8049B5862EB
:1046C000446084600460C460049B5B6A19680029CC
:1046D0000BD05A68012393404A608B60049801F024
:1046E00046F90022049B5B6A1A60079B002B05DADF
:1046F00001232B607B005B08079301E000232B6004
:10470000079CC84B220019931A409A4219D1C64BF4
:10471000249A1360069AC54B002A02D1240300D1C3
:10472000C34B269A1800002A01D100F07DFDD978EC
:10473000DA1C002900D00532269918000A6000F022
:1047400073FD069E079F0022002330003900FDF70D
:10475000C3FF051E0ED00123249A1360B54B269A81
:104760001800002A01D100F05FFDB34A26990A60C3
:1047700000F05AFD1AAB01931BAB009332003B00D3
:10478000049801F001FC630005905B0D09D03A0329
:10479000AA4C120B1443AA4A300021009E18179508
:1047A0001AE01A9B1B9A9E18A64BF318202B08DDC3
:1047B000A54A0698B218D0404022D31A9C40204304
:1047C00003E020220698D31A9840FDF75DFE0123EE
:1047D0009E4C013E0919179300229D4BFDF7CAFA22
:1047E0009C4A9D4BFDF74CF89C4A9D4B02F00EF8FD
:1047F000040030000D0002F055FB9A4A9A4BFDF779
:104800003FF802000B002000290001F0FFFF040028
:104810000D00FDF703FE0022039000232000290075
:10482000FDF760FF00280DD0039802F03BFB02006B
:104830000B0020002900FDF74FFF43424341039A3C
:10484000D31A039301231693039B162B11D8874980
:10485000DB00C91808684968069A079BFDF756FFF0
:10486000002805D0039B013B03930023169300E02F
:1048700016901A9B9E1B00230B93013E0C9604D5A9
:104880000C9B5B420B9300230C93039B002B08DBD8
:10489000039A0C9B944663440C9300231192089353
:1048A00007E00B9B039A9B1A0B9353420893002338
:1048B0001193229B0125092B25D8052B02DD00250C
:1048C000043B2293229B981E032824D801F0AAFEC1
:1048D000060E0204012302E0012308E000231093E6
:1048E000239B002B20DD1F000A9321E00023239A45
:1048F0001093039B9F187B1C0A930123FA18002A2C
:1049000016DD130014E0012700237F422293109547
:104910000A97123305E0012701237F4210930A977B
:1049200011330022239203E001273B000A972397CB
:10493000049A546A002262600432110014319942D0
:1049400004D86168520001316160F6E7616804983B
:1049500000F0D5FF049B20605B6A1B680D930A9BE7
:104960000E2B00D981E1002D00D17EE1069B079C32
:1049700014931594039B002B31DD0F223B49134008
:10498000DB00CB185C681B680E930F94039B02241A
:104990001D11EB060AD514981599354B15401A6A66
:1049A0005B6AFCF757FC069007910134304E002DEE
:1049B0000ED001231D4208D00E980F99E4183268DA
:1049C0007368FCF75DFF0E900F916D100836EEE7EF
:1049D0000E9A0F9B06980799FCF73CFC4CE0039B52
:1049E00002245D42002D49D0149815990F231F4AC7
:1049F0002B40DB00D3181A685B68FCF741FF0023EB
:104A0000069007911A4E2D11002D33D00122154228
:104A100005D0A41832687368FCF732FF01236D10CB
:104A20000836F1E70000F07F0F270000E171000871
:104A3000D87100085C7100085D7100080000F03F4B
:104A400001FCFFFF3204000012040000000010FE11
:104A50000000F83F61436F63A787D23FB3C8608B04
:104A6000288AC63FFB799F501344D33FF07100085A
:104A7000B8720008002B01D006900791169B002BFE
:104A80001DD0069D079E0022C74B28003100FDF770
:104A900029FE002813D00A9B002B10D0002F00DC29
:104AA000DFE0039B3100013B0E930022BF4B280047
:104AB000FCF7E6FE0134069007913E0002E0039BFE
:104AC0000A9E0E93200002F0EDF9069A079BFCF770
:104AD000D7FE0022B64B01F099FEB64A1290139110
:104AE000129C139D9446139B634418931D00002E43
:104AF0001CD1069807990022AF4BFDF73BF9220025
:104B0000189B06900791FDF701FE002800D054E2A3
:104B1000AA481399844661440B000698079922001D
:104B2000FDF7E0FD002800D03DE29AE0109A731EE8
:104B3000A349DB00002A49D0CB181A685B68002023
:104B4000A049FCF787FB2B002200FDF713F9129018
:104B500013910D9D06980799FDF760FC040002F083
:104B6000A1F902000B0006980799FDF703F901353A
:104B70006B1E30341C70129A139B06900791FDF740
:104B8000B1FD002800D02EE3069A079B002086493D
:104B9000FDF7F0F8129A139BFDF7A4FD002800D052
:104BA000C7E00D9BEB1AB3425BDA1298139900220F
:104BB0007E4BFCF765FE0022129013910698079930
:104BC0007A4BFCF75DFE06900791C3E7C9182200F7
:104BD000086849682B00FCF753FE0D9C1290139156
:104BE000A51906980799FDF719FC060002F05AF975
:104BF00002000B0006980799FDF7BCF830362670C6
:104C00000134069007910022A54222D16D4B1298E3
:104C1000139901F0FBFD02000B0006980799FDF7C0
:104C200075FD002800D084E0129A139B002065498E
:104C3000FDF7A0F802000B0006980799FDF752FD5A
:104C400000280ED06B1E1A78302A00D0CBE21D004F
:104C5000F8E706980799554BFCF712FE0690079166
:104C6000BFE7149B159C069307941B9B002B00DA4F
:104C700081E0039A0E2A00DD7DE0D300504AD3186C
:104C80005C681B6808930994239B002B15DA0A9B28
:104C9000002B12DC00D088E1089809990022464BCD
:104CA000FCF7EEFD069A079BFDF73AFD0A9B089379
:104CB0001E00002800D07BE182E10D9D069E079F2B
:104CC000089A099B30003900FCF7C4FAFDF7A6FBEF
:104CD000040002F0E7F8089A099BFCF7D1FD0200F6
:104CE0000B0030003900FDF745F8220001356B1E3E
:104CF00030321A700D9B0A9AEB1A9A422ED102009A
:104D00000B0001F083FD06000F0002000B00089865
:104D10000999FDF7E7FC00280FD10898099932009E
:104D20003B00FDF7D9FC002800D15EE2E30704D484
:104D30005BE20E9B039300E01D006B1E1A78392A7C
:104D400008D10D9A9A42F7D1039A0D990132039234
:104D500030220A701A7801321A7046E20022134B90
:104D6000FCF78EFD0022002306000F00FDF7B4FCC7
:104D70000028A5D039E2109A002A44D0229A012AAC
:104D80000BDC179A002A02D00F4A9B1802E0362348
:104D90001A9A9B1A089D0B9C29E00A9B5D1E089B92
:104DA000AB4213DB5D1B18E00000F03F0000244025
:104DB00000001C400000C0FC000014400000C07C4B
:104DC000F07100080000E03F33040000089B0895E4
:104DD000EA1A0025119B9B1811930A9B002B04DAF9
:104DE0000B9B0A9A9C1A002301E00B9C0A9B0B9ACE
:104DF0000121D2180B920C9A0498D3180C9300F04E
:104E000094FE060002E0089D0B9C109E002C0ED024
:104E10000C9B002B0BDD0C9A2300944200DD130049
:104E20000B9AE41AD21A0B920C9AD31A0C93089B81
:104E3000002B20DD109B002B17D0002D11D031004E
:104E40002A00049800F004FF059A01000600049867
:104E500000F074FE05990E90049800F088FD0E9BFA
:104E60000593089B5A1B06D000E0089A0599049800
:104E700000F0EEFE05900121049800F056FE119B13
:104E80000890002B00D1C0E11A000100049800F046
:104E9000DFFE229B0890012B17DC0025069BAB420E
:104EA0000ED1079B1B03AB420AD1199B079A1342F1
:104EB00006D00B9B013501330B930C9B01330C93F4
:104EC000119B0120002B0DD000E00025089B089AC3
:104ED0001B690E9303339B00D318586800F0DBFD69
:104EE0002023181A0C9BC0181F23184009D0013327
:104EF0001B1A042B02DD1C23181A03E0042B08D014
:104F000018001C300B9B24181B180B930C9B1B18B0
:104F10000C930B9B002B05DD1A000599049800F0FB
:104F2000EBFE05900C9B002B05DD1A0008990498F8
:104F300000F0E2FE0890169B002B1DD00899059802
:104F400000F02CFF002817DA039B0A22013B039391
:104F500005990023049800F023FD109B0590002B79
:104F600000D159E1310000230A22049800F018FD15
:104F70000600002F37DC33E00A9B0A9F002B2ADC57
:104F8000229B022B27DD002F12D108993B0005221E
:104F9000049800F005FD08900100059800F0FEFE61
:104FA00000280DDC04E0089602E000231E000893B0
:104FB000239B0D9DDB4303930AE00E9B089603930E
:104FC0000D9B0D9A5D1C31231370039B01330393DA
:104FD0000A960026F3E0109B002B04D10D9DB5E04E
:104FE000229B022BCFDC002C05DD3100220004982F
:104FF00000F082FE06000A96002D12D07168049817
:1050000000F07DFC3100040033690C319A1C9200E1
:105010000C30FDF7C1FC01222100049800F06CFE69
:105020000A900D9B7D1E0B935B190E9308990598B2
:10503000FFF7B0FA310010900400059800F0AEFEC2
:105040000A9A05000899049800F0C3FE01230C9306
:10505000C36830340700002B04D10100059800F02C
:105060009DFE0C903900049800F081FC0C9B229A64
:10507000134308D1069A0133134204D1392C2AD0A4
:10508000002D1CDC1DE0002D06DB229B1D431BD1E7
:105090000123069A134217D10C9B002B11DD0599B1
:1050A0000122049800F028FE0899059000F076FE91
:1050B000002802DC05D1E30703D5392C0BD0109C66
:1050C00031340B9B5D1C0FE00B9B5F1C0C9B002B7A
:1050D0000CDD392C05D10B9B0B9A5D1C3923137009
:1050E00057E03D000B9B01341C7068E00B9B0E9A4F
:1050F0003D001C7093423CD000230A22059904987D
:1051000000F04EFC0A9B05909E4208D1310000231E
:105110000A22049800F044FC06000A900DE03100D9
:1051200000230A22049800F03BFC002306000A2218
:105130000A99049800F034FC0A900B9776E7002354
:105140000A220599049800F02BFC0590089905980F
:10515000FFF720FA0D9B3030287001350400EB1A60
:10516000BB42ECDB3D1E00DC01250A9600260D9BB0
:105170005D1905990122049800F0BEFD089905907B
:1051800000F00CFE002804DC13D1E30701D410E08A
:105190001D006B1E1A78392A08D10D9A9A42F7D150
:1051A000039B013303933123137008E001321A701B
:1051B00005E06B1E1A78302A01D11D00F9E7089925
:1051C000049800F0D4FB0A9B002B0ED0002E05D0D3
:1051D0009E4203D03100049800F0C9FB0A9904985C
:1051E00000F0C5FB01E00E9B03930498059900F0C5
:1051F000BEFB00232B70039B249A01331360269B74
:105200000D98002B10D01D600EE0229B012B00DCBE
:1052100043E6119D012065E6002F00DDDEE6229BBE
:10522000022B00DCDAE6AEE61DB0F0BDF0B50600FC
:10523000056914364A113400AA4225DA1F23AD004D
:10524000920019407519B2183300002916D01300C6
:1052500004CB2027CA40B4467F1A64469D4208D931
:105260001C68BC402243644604C404CBA446CA4024
:10527000F3E72260002A07D0043405E01C009542C1
:1052800002D902CA02C3F9E7A31B9B10036100D134
:105290004361F0BD0300303B092B01D820380BE0FF
:1052A0000300613B052B01D8473805E00200413A75
:1052B0000023052A01D82738C3B218007047F0B57B
:1052C0008DB005901498099102920A9300F0E2FAC9
:1052D000036818000793FEF72FFA0222079B524239
:1052E0001B18013B1B7804900B93099B19688B1CBE
:1052F000521AD11801930891019901330878302886
:10530000F7D0FFF7C7FF061E20D1049A079901982E
:1053100001F01AF900283CD1019B049A9C182078CE
:10532000FFF7B8FF002837D00194019B1878302888
:1053300003D1019B01330193F7E7FFF7ABFF434232
:105340004341039301232600089302E000231E003B
:105350000393019C2078FFF79DFF002801D00134C2
:10536000F8E7049A0799200001F0EEF800280BD125
:10537000002E0BD1049BE41826002078FFF78AFF4B
:10538000002801D00134F8E7371E08D0361BB700DB
:1053900005E0019C370000E0070001230393237818
:1053A000502B01D0702B28D163782B2B07D02D2BBD
:1053B00003D00023661C069304E0012300E00023D1
:1053C0000693A61C3078FFF765FF431EDBB2182B4F
:1053D00013D81038013605003078FFF75BFF431E05
:1053E000DBB2182B03D80A235D432818F1E7069B8C
:1053F000002B00D06D427F1900E02600099B1E6043
:10540000039B002B06D00020089B834200D07FE145
:1054100006307DE1019B0399E31A013B072B02DD76
:1054200001315B10FAE7059800F069FA03000026E5
:1054300005001433039308930696019BA3422BD2D5
:10544000631E09930B9A1B78934209D0069B202B6D
:1054500015D1089B1E6000260433089306960EE0C3
:105460000123049A9C1A099B1C19019BA342EDD8A5
:105470000799200001F068F80028DED0E6E7099BD4
:105480001878FFF707FF0F231840069B099C9840E8
:10549000043306430693D0E7089C039B40C4E41AF8
:1054A000A4102C61300000F0F6FA029B64011B6826
:1054B000261A01939E4225DDF61A3100280000F0DD
:1054C000F5FD0024A04217D01F2101342000731ED7
:1054D0001940884001005A110398920012580A425C
:1054E0000AD0A34201DC022406E0B11E280000F02D
:1054F000DDFD0028F7D0032431002800FFF796FED9
:10550000BF190EE0019B00249E420ADA9E1B29006F
:105510003200059800F0F0FB030005001433BF1BB8
:105520000393029B9B6804939F4208DD0598290022
:1055300000F01DFA0023129AA3201360E8E0029BFA
:105540005E68B74259DA019BF61BB34232DC029B1C
:10555000DB68022B1ED0032B20D0012B21D1019B15
:10556000B3421ED1012B0DDC029B62205B680193CC
:10557000019A0A9B1A600123039A2B611360129B04
:105580001D60C5E001992800013900F08FFD002859
:10559000EAD106E0139B002BE6D002E0139B002B20
:1055A000E2D10598290000F0E2F90023129A502078
:1055B0001360ADE0771E002C07D1002F06D0390014
:1055C000280000F073FD040000E001241F237A117D
:1055D0001F401E3BBB400399920052581A4201D013
:1055E00002231C43019B31009B1B28000193FFF702
:1055F0001DFE029B02265F6800E00126002C00D100
:1056000081E0029BDB68022B0BD0032B0DD0012B1A
:1056100077D1A20775D5039A126814431C4207D1AB
:105620006FE00123139A9B1A1393139B002B68D0EE
:105630002C69A30004932B00A200143399180022B4
:1056400094461A68501C02D001321A6021E062466A
:1056500004C39942F5D8AB689C4212DB6B6805988D
:10566000591C00F04CF929002B6903909A1C9200F8
:105670000C310C30FDF790F92900059800F077F90E
:10568000039D2B695A1C2A61012204339B00EB18ED
:105690005A602B001433022E12D1029A019912681B
:1056A000013A91422BD14A111F21019892000140E9
:1056B000012004008C40D358234220D006001EE075
:1056C0002A6994420BDA01212800FFF7AFFD029B03
:1056D00001379B6801269F4200DD27E70FE01F246A
:1056E000019A01262240141E09D0049A9B18043BFB
:1056F000186800F0D0F920210C1BA042E3DB202326
:1057000000E010231E433000129B1D600A9B1F60A7
:105710000DB0F0BD082370B520259A1A9200AD1A7D
:10572000436806681C00AC40D340344304604360C7
:1057300004308842F4D370BD30B503680C7801336F
:10574000002C0AD01A781500413D192D00D82032BE
:105750000131A242F2D0002001E00360012030BDFF
:10576000F0B589B000920A68009953119B00CB18DC
:1057700002931F231A400790059202D0029B043324
:105780000293029B00251E1F37003400079B3560E3
:105790001B68069503930195039B013303931B78C4
:1057A0000493002B3BD00498FFF774FD002822D10E
:1057B000049B202B17D8019B069A9342ECDDBC4238
:1057C00006D2072D04DC2A0039002000FFF7A2FFD3
:1057D000009B08259C42DFD90025019B271F3D60C7
:1057E00006933C00D8E7049B292B4BD1039B079AD7
:1057F0000133136013E0019B013501330193082D40
:1058000006DD009B9C42C7D900230125043C236090
:105810000F22236810401B0118432060BCE7019B46
:10582000002B2FD0BC4206D2072D04DC2A00390001
:105830002000FFF76FFF009B9C420AD9043302CC83
:105840001A1F1160A642F9D2002204C39E42FCD264
:105850000DE0059B002B0AD02021059A029B891A96
:1058600001225242CA40043B19680A401A60336858
:10587000002B09D1009B9E4202D10123336003E03B
:10588000043EF4E7042000E0052009B0F0BDEC3050
:1058900000687047F0307047034B1B68186A002897
:1058A00000D10248F0307047980400209C0400208A
:1058B00010B5034B0100186800F074FC10BDC04621
:1058C0009804002082B0002900D101A9101E09D03F
:1058D000002B05D013780B601078431E984101E02F
:1058E0000220404202B07047C9B28218904204D0F0
:1058F00003788B4202D00130F8E70020704770B582
:10590000466A04000D00002E07D11020FFF7D0FFDB
:105910006062466086600660C660666AF368002B57
:1059200009D0636AAA00DB689B18186800280ED0AB
:1059300002681A6017E021220421200000F0D7FB42
:10594000636AF060DB68002BEBD100200EE00121E0
:105950000E00AE40721D9200200000F0C8FB00282F
:10596000F3D04560866000230361C36070BD70B5ED
:10597000456A06000C00002D07D11020FFF798FFA4
:105980007062456085600560C560002C07D0726A52
:105990006368D2689B00D3181A6822601C6070BDCF
:1059A000F7B5070008000C000D691E0000210192E8
:1059B0001430019A0388013153439B190668360C51
:1059C00056431A0C9446B4446246160C120494468C
:1059D0009BB2634408C08D42EBDC002E1BD0A36851
:1059E0009D4212DB63683800591CFFF788FF2100D5
:1059F000236901909A1C92000C310C30FCF7CCFF0B
:105A000021003800FFF7B3FF019C2B1D9B00E3181A
:105A100001355E6025612000FEBDF7B50600180067
:105A20000C00083009210193150000F005FE012348
:105A30000021834202DA5B000131FAE73000FFF710
:105A40005EFF089B436101230361092D12DD2300E2
:105A500009331F00009364193B780100303B0A2290
:105A600030000137FFF79CFFA742F5D1009B5C197E
:105A7000083C01E009250A342F00019B9F4209DA06
:105A8000631BDB5D0100303B0A223000FFF788FF1B
:105A90000137F2E7FEBD00220300010C914201D163
:105AA00003041032190E01D108321B02190F01D163
:105AB00004321B01990F01D102329B001000002B10
:105AC00003DB20205B0000D5501C704707220368D1
